{
  "address": "0x5FbDB2315678afecb367f032d93F642f64180aa3",
  "abi": [
    {
      "inputs": [
        {
          "internalType": "uint256",
          "name": "interval",
          "type": "uint256"
        }
      ],
      "stateMutability": "nonpayable",
      "type": "constructor"
    },
    {
      "inputs": [],
      "name": "Admin__NoBrandAvailable",
      "type": "error"
    },
    {
      "inputs": [],
      "name": "Admin__UpkeepNotTrue",
      "type": "error"
    },
    {
      "anonymous": false,
      "inputs": [
        {
          "indexed": true,
          "internalType": "address",
          "name": "brandAdd",
          "type": "address"
        }
      ],
      "name": "BrandAdded",
      "type": "event"
    },
    {
      "anonymous": false,
      "inputs": [
        {
          "indexed": true,
          "internalType": "address",
          "name": "brandAdd",
          "type": "address"
        }
      ],
      "name": "WarrantyExtended",
      "type": "event"
    },
    {
      "inputs": [
        {
          "internalType": "uint256",
          "name": "_brandID",
          "type": "uint256"
        },
        {
          "internalType": "address",
          "name": "_brandAdd",
          "type": "address"
        },
        {
          "internalType": "string",
          "name": "_brandName",
          "type": "string"
        },
        {
          "internalType": "string",
          "name": "_brandEmailAddress",
          "type": "string"
        },
        {
          "internalType": "uint256",
          "name": "_warrantyIndex",
          "type": "uint256"
        },
        {
          "internalType": "address",
          "name": "_smartContractAddress",
          "type": "address"
        }
      ],
      "name": "addBrand",
      "outputs": [],
      "stateMutability": "nonpayable",
      "type": "function"
    },
    {
      "inputs": [
        {
          "internalType": "bytes",
          "name": "",
          "type": "bytes"
        }
      ],
      "name": "checkUpkeep",
      "outputs": [
        {
          "internalType": "bool",
          "name": "upkeepNeeded",
          "type": "bool"
        },
        {
          "internalType": "bytes",
          "name": "",
          "type": "bytes"
        }
      ],
      "stateMutability": "view",
      "type": "function"
    },
    {
      "inputs": [
        {
          "internalType": "address",
          "name": "_brandAdd",
          "type": "address"
        },
        {
          "internalType": "uint256",
          "name": "_warrantyIndex",
          "type": "uint256"
        }
      ],
      "name": "extendWarranty",
      "outputs": [],
      "stateMutability": "payable",
      "type": "function"
    },
    {
      "inputs": [
        {
          "internalType": "uint256",
          "name": "index",
          "type": "uint256"
        }
      ],
      "name": "getBrandAddress",
      "outputs": [
        {
          "internalType": "address",
          "name": "",
          "type": "address"
        }
      ],
      "stateMutability": "view",
      "type": "function"
    },
    {
      "inputs": [],
      "name": "getBrandArrays",
      "outputs": [
        {
          "components": [
            {
              "internalType": "uint256",
              "name": "brandID",
              "type": "uint256"
            },
            {
              "internalType": "address",
              "name": "brandAddress",
              "type": "address"
            },
            {
              "internalType": "string",
              "name": "brandName",
              "type": "string"
            },
            {
              "internalType": "string",
              "name": "brandEmailAddress",
              "type": "string"
            },
            {
              "internalType": "uint256",
              "name": "warrantyPeriod",
              "type": "uint256"
            },
            {
              "internalType": "address",
              "name": "smartContractAddress",
              "type": "address"
            }
          ],
          "internalType": "struct Admin.Brand[]",
          "name": "",
          "type": "tuple[]"
        }
      ],
      "stateMutability": "view",
      "type": "function"
    },
    {
      "inputs": [
        {
          "internalType": "uint256",
          "name": "index",
          "type": "uint256"
        }
      ],
      "name": "getBrandData",
      "outputs": [
        {
          "components": [
            {
              "internalType": "uint256",
              "name": "brandID",
              "type": "uint256"
            },
            {
              "internalType": "address",
              "name": "brandAddress",
              "type": "address"
            },
            {
              "internalType": "string",
              "name": "brandName",
              "type": "string"
            },
            {
              "internalType": "string",
              "name": "brandEmailAddress",
              "type": "string"
            },
            {
              "internalType": "uint256",
              "name": "warrantyPeriod",
              "type": "uint256"
            },
            {
              "internalType": "address",
              "name": "smartContractAddress",
              "type": "address"
            }
          ],
          "internalType": "struct Admin.Brand",
          "name": "",
          "type": "tuple"
        }
      ],
      "stateMutability": "view",
      "type": "function"
    },
    {
      "inputs": [
        {
          "internalType": "uint256",
          "name": "index",
          "type": "uint256"
        }
      ],
      "name": "getBrandEmailAddress",
      "outputs": [
        {
          "internalType": "string",
          "name": "",
          "type": "string"
        }
      ],
      "stateMutability": "view",
      "type": "function"
    },
    {
      "inputs": [
        {
          "internalType": "address",
          "name": "brandAdd",
          "type": "address"
        }
      ],
      "name": "getBrandID",
      "outputs": [
        {
          "internalType": "uint256",
          "name": "",
          "type": "uint256"
        }
      ],
      "stateMutability": "view",
      "type": "function"
    },
    {
      "inputs": [
        {
          "internalType": "address",
          "name": "brandAdd",
          "type": "address"
        }
      ],
      "name": "getBrandIndex",
      "outputs": [
        {
          "internalType": "uint256",
          "name": "",
          "type": "uint256"
        }
      ],
      "stateMutability": "view",
      "type": "function"
    },
    {
      "inputs": [
        {
          "internalType": "uint256",
          "name": "id",
          "type": "uint256"
        }
      ],
      "name": "getBrandIndexFromID",
      "outputs": [
        {
          "internalType": "uint256",
          "name": "",
          "type": "uint256"
        }
      ],
      "stateMutability": "view",
      "type": "function"
    },
    {
      "inputs": [
        {
          "internalType": "uint256",
          "name": "index",
          "type": "uint256"
        }
      ],
      "name": "getBrandName",
      "outputs": [
        {
          "internalType": "string",
          "name": "",
          "type": "string"
        }
      ],
      "stateMutability": "view",
      "type": "function"
    },
    {
      "inputs": [
        {
          "internalType": "uint256",
          "name": "index",
          "type": "uint256"
        }
      ],
      "name": "getBrandSmartContractAddress",
      "outputs": [
        {
          "internalType": "address",
          "name": "",
          "type": "address"
        }
      ],
      "stateMutability": "view",
      "type": "function"
    },
    {
      "inputs": [
        {
          "internalType": "uint256",
          "name": "index",
          "type": "uint256"
        }
      ],
      "name": "getBrandWarrantyLeft",
      "outputs": [
        {
          "internalType": "uint256",
          "name": "",
          "type": "uint256"
        }
      ],
      "stateMutability": "view",
      "type": "function"
    },
    {
      "inputs": [
        {
          "internalType": "uint256",
          "name": "warrantyPackIndex",
          "type": "uint256"
        }
      ],
      "name": "getEntryFee",
      "outputs": [
        {
          "internalType": "uint256",
          "name": "",
          "type": "uint256"
        }
      ],
      "stateMutability": "view",
      "type": "function"
    },
    {
      "inputs": [],
      "name": "getInterval",
      "outputs": [
        {
          "internalType": "uint256",
          "name": "",
          "type": "uint256"
        }
      ],
      "stateMutability": "view",
      "type": "function"
    },
    {
      "inputs": [],
      "name": "getNumberOfBrands",
      "outputs": [
        {
          "internalType": "uint256",
          "name": "",
          "type": "uint256"
        }
      ],
      "stateMutability": "view",
      "type": "function"
    },
    {
      "inputs": [],
      "name": "getOwner",
      "outputs": [
        {
          "internalType": "address",
          "name": "",
          "type": "address"
        }
      ],
      "stateMutability": "view",
      "type": "function"
    },
    {
      "inputs": [
        {
          "internalType": "uint256",
          "name": "warrantyPackIndex",
          "type": "uint256"
        }
      ],
      "name": "getWarrantyPack",
      "outputs": [
        {
          "internalType": "uint256",
          "name": "",
          "type": "uint256"
        }
      ],
      "stateMutability": "view",
      "type": "function"
    },
    {
      "inputs": [
        {
          "internalType": "bytes",
          "name": "",
          "type": "bytes"
        }
      ],
      "name": "performUpkeep",
      "outputs": [],
      "stateMutability": "nonpayable",
      "type": "function"
    }
  ],
  "transactionHash": "0xbcfb4b5c50cbc32473a49497ee451d74f69316313f6513d5ba2172a9ad4ea904",
  "args": [
    "86400"
  ],
  "numDeployments": 1,
  "solcInputHash": "6aa5020a186e231e6e6aac889dcd0dcc",
  "bytecode": "0x60c06040523480156200001157600080fd5b506040516200223238038062002232833981810160405281019062000037919062000200565b3373ffffffffffffffffffffffffffffffffffffffff1660808173ffffffffffffffffffffffffffffffffffffffff1660601b815250508060a08181525050426001819055506040518060400160405280601e60ff168152602001600160ff168152506002600060018152602001908152602001600020906002620000be9291906200014a565b506040518060400160405280603c60ff168152602001600260ff168152506002600060028152602001908152602001600020906002620001009291906200014a565b506040518060400160405280605a60ff168152602001600360ff168152506002600060038152602001908152602001600020906002620001429291906200014a565b505062000232565b8280548282559060005260206000209081019282156200018e579160200282015b828111156200018d578251829060ff169055916020019190600101906200016b565b5b5090506200019d9190620001a1565b5090565b5b80821115620001bc576000816000905550600101620001a2565b5090565b600080fd5b6000819050919050565b620001da81620001c5565b8114620001e657600080fd5b50565b600081519050620001fa81620001cf565b92915050565b600060208284031215620002195762000218620001c0565b5b60006200022984828501620001e9565b91505092915050565b60805160601c60a051611fd06200026260003960008181610fd001526111640152600061113c0152611fd06000f3fe6080604052600436106101145760003560e01c80636e04ff0d116100a05780639ab5a65d116100645780639ab5a65d146103f1578063ab6818931461042e578063b0074bd614610459578063d5b2a79e14610496578063dbd8db6b146104d357610114565b80636e04ff0d14610304578063826debf114610342578063893d20e81461035e57806391ad27b414610389578063984d3c96146103b457610114565b80632940abf0116100e75780632940abf0146101f95780634585e33b146102245780634907c36a1461024d57806351ecf2291461028a5780636123504a146102c757610114565b806303cb964d146101195780630ed32c1e1461015657806310dc51681461019357806311b63a22146101bc575b600080fd5b34801561012557600080fd5b50610140600480360381019061013b9190611542565b610510565b60405161014d91906115b0565b60405180910390f35b34801561016257600080fd5b5061017d60048036038101906101789190611542565b61055e565b60405161018a91906115da565b60405180910390f35b34801561019f57600080fd5b506101ba60048036038101906101b59190611767565b61057b565b005b3480156101c857600080fd5b506101e360048036038101906101de9190611542565b61083c565b6040516101f091906115da565b60405180910390f35b34801561020557600080fd5b5061020e610876565b60405161021b9190611a24565b60405180910390f35b34801561023057600080fd5b5061024b60048036038101906102469190611aa6565b610ab9565b005b34801561025957600080fd5b50610274600480360381019061026f9190611542565b610d13565b60405161028191906115b0565b60405180910390f35b34801561029657600080fd5b506102b160048036038101906102ac9190611542565b610d61565b6040516102be9190611b83565b60405180910390f35b3480156102d357600080fd5b506102ee60048036038101906102e99190611ba5565b610f81565b6040516102fb91906115da565b60405180910390f35b34801561031057600080fd5b5061032b60048036038101906103269190611c73565b610fca565b604051610339929190611d2c565b60405180910390f35b61035c60048036038101906103579190611d5c565b611040565b005b34801561036a57600080fd5b50610373611138565b60405161038091906115b0565b60405180910390f35b34801561039557600080fd5b5061039e611160565b6040516103ab91906115da565b60405180910390f35b3480156103c057600080fd5b506103db60048036038101906103d69190611542565b611188565b6040516103e891906115da565b60405180910390f35b3480156103fd57600080fd5b5061041860048036038101906104139190611542565b6111c2565b6040516104259190611de6565b60405180910390f35b34801561043a57600080fd5b50610443611279565b60405161045091906115da565b60405180910390f35b34801561046557600080fd5b50610480600480360381019061047b9190611ba5565b611285565b60405161048d91906115da565b60405180910390f35b3480156104a257600080fd5b506104bd60048036038101906104b89190611542565b6112ce565b6040516104ca91906115da565b60405180910390f35b3480156104df57600080fd5b506104fa60048036038101906104f59190611542565b6112fc565b6040516105079190611de6565b60405180910390f35b600080828154811061052557610524611e08565b5b906000526020600020906006020160050160009054906101000a900473ffffffffffffffffffffffffffffffffffffffff169050919050565b600060056000838152602001908152602001600020549050919050565b600080549050600360008773ffffffffffffffffffffffffffffffffffffffff1673ffffffffffffffffffffffffffffffffffffffff1681526020019081526020016000208190555085600460008773ffffffffffffffffffffffffffffffffffffffff1673ffffffffffffffffffffffffffffffffffffffff16815260200190815260200160002081905550600360008673ffffffffffffffffffffffffffffffffffffffff1673ffffffffffffffffffffffffffffffffffffffff16815260200190815260200160002054600560008881526020019081526020016000208190555060006040518060c001604052808881526020018773ffffffffffffffffffffffffffffffffffffffff168152602001868152602001858152602001600260008681526020019081526020016000206000815481106106c0576106bf611e08565b5b906000526020600020015481526020018373ffffffffffffffffffffffffffffffffffffffff1681525090806001815401808255809150506001900390600052602060002090600602016000909190919091506000820151816000015560208201518160010160006101000a81548173ffffffffffffffffffffffffffffffffffffffff021916908373ffffffffffffffffffffffffffffffffffffffff16021790555060408201518160020190805190602001906107809291906113b3565b50606082015181600301908051906020019061079d9291906113b3565b506080820151816004015560a08201518160050160006101000a81548173ffffffffffffffffffffffffffffffffffffffff021916908373ffffffffffffffffffffffffffffffffffffffff16021790555050508473ffffffffffffffffffffffffffffffffffffffff167ff294465ab6aaa3650993093431777d23cda2be98f0ce448bbd202694c8beafb960405160405180910390a2505050505050565b60006002600083815260200190815260200160002060008154811061086457610863611e08565b5b90600052602060002001549050919050565b60606000805480602002602001604051908101604052809291908181526020016000905b82821015610ab057838290600052602060002090600602016040518060c0016040529081600082015481526020016001820160009054906101000a900473ffffffffffffffffffffffffffffffffffffffff1673ffffffffffffffffffffffffffffffffffffffff1673ffffffffffffffffffffffffffffffffffffffff16815260200160028201805461092d90611e66565b80601f016020809104026020016040519081016040528092919081815260200182805461095990611e66565b80156109a65780601f1061097b576101008083540402835291602001916109a6565b820191906000526020600020905b81548152906001019060200180831161098957829003601f168201915b505050505081526020016003820180546109bf90611e66565b80601f01602080910402602001604051908101604052809291908181526020018280546109eb90611e66565b8015610a385780601f10610a0d57610100808354040283529160200191610a38565b820191906000526020600020905b815481529060010190602001808311610a1b57829003601f168201915b50505050508152602001600482015481526020016005820160009054906101000a900473ffffffffffffffffffffffffffffffffffffffff1673ffffffffffffffffffffffffffffffffffffffff1673ffffffffffffffffffffffffffffffffffffffff16815250508152602001906001019061089a565b50505050905090565b6000610ad360405180602001604052806000815250610fca565b50905080610b0d576040517f4869d11200000000000000000000000000000000000000000000000000000000815260040160405180910390fd5b600080805490501415610b4c576040517f048e7b7500000000000000000000000000000000000000000000000000000000815260040160405180910390fd5b60005b600080549050811015610d0657600160008281548110610b7257610b71611e08565b5b90600052602060002090600602016004016000828254610b929190611ec7565b925050819055506000808281548110610bae57610bad611e08565b5b9060005260206000209060060201600401541415610cf357600060036000808481548110610bdf57610bde611e08565b5b906000526020600020906006020160010160009054906101000a900473ffffffffffffffffffffffffffffffffffffffff1673ffffffffffffffffffffffffffffffffffffffff1673ffffffffffffffffffffffffffffffffffffffff1681526020019081526020016000208190555060008181548110610c6357610c62611e08565b5b90600052602060002090600602016000808201600090556001820160006101000a81549073ffffffffffffffffffffffffffffffffffffffff0219169055600282016000610cb19190611439565b600382016000610cc19190611439565b60048201600090556005820160006101000a81549073ffffffffffffffffffffffffffffffffffffffff021916905550505b8080610cfe90611efb565b915050610b4f565b5042600181905550505050565b6000808281548110610d2857610d27611e08565b5b906000526020600020906006020160010160009054906101000a900473ffffffffffffffffffffffffffffffffffffffff169050919050565b610d69611479565b60008281548110610d7d57610d7c611e08565b5b90600052602060002090600602016040518060c0016040529081600082015481526020016001820160009054906101000a900473ffffffffffffffffffffffffffffffffffffffff1673ffffffffffffffffffffffffffffffffffffffff1673ffffffffffffffffffffffffffffffffffffffff168152602001600282018054610e0690611e66565b80601f0160208091040260200160405190810160405280929190818152602001828054610e3290611e66565b8015610e7f5780601f10610e5457610100808354040283529160200191610e7f565b820191906000526020600020905b815481529060010190602001808311610e6257829003601f168201915b50505050508152602001600382018054610e9890611e66565b80601f0160208091040260200160405190810160405280929190818152602001828054610ec490611e66565b8015610f115780601f10610ee657610100808354040283529160200191610f11565b820191906000526020600020905b815481529060010190602001808311610ef457829003601f168201915b50505050508152602001600482015481526020016005820160009054906101000a900473ffffffffffffffffffffffffffffffffffffffff1673ffffffffffffffffffffffffffffffffffffffff1673ffffffffffffffffffffffffffffffffffffffff16815250509050919050565b6000600360008373ffffffffffffffffffffffffffffffffffffffff1673ffffffffffffffffffffffffffffffffffffffff168152602001908152602001600020549050919050565b600060607f000000000000000000000000000000000000000000000000000000000000000060015442610ffd9190611ec7565b119150816040518060400160405280600381526020017f307830000000000000000000000000000000000000000000000000000000000081525091509150915091565b6000600360008473ffffffffffffffffffffffffffffffffffffffff1673ffffffffffffffffffffffffffffffffffffffff168152602001908152602001600020549050600260008381526020019081526020016000206000815481106110aa576110a9611e08565b5b9060005260206000200154600082815481106110c9576110c8611e08565b5b906000526020600020906006020160040160008282546110e99190611f44565b925050819055508273ffffffffffffffffffffffffffffffffffffffff167f0ea7d2342843933fa1a5957a73c94e85bd2272ae8cbe39e30ac528fe08d4135e60405160405180910390a2505050565b60007f0000000000000000000000000000000000000000000000000000000000000000905090565b60007f0000000000000000000000000000000000000000000000000000000000000000905090565b6000600260008381526020019081526020016000206001815481106111b0576111af611e08565b5b90600052602060002001549050919050565b6060600082815481106111d8576111d7611e08565b5b906000526020600020906006020160030180546111f490611e66565b80601f016020809104026020016040519081016040528092919081815260200182805461122090611e66565b801561126d5780601f106112425761010080835404028352916020019161126d565b820191906000526020600020905b81548152906001019060200180831161125057829003601f168201915b50505050509050919050565b60008080549050905090565b6000600460008373ffffffffffffffffffffffffffffffffffffffff1673ffffffffffffffffffffffffffffffffffffffff168152602001908152602001600020549050919050565b60008082815481106112e3576112e2611e08565b5b9060005260206000209060060201600401549050919050565b60606000828154811061131257611311611e08565b5b9060005260206000209060060201600201805461132e90611e66565b80601f016020809104026020016040519081016040528092919081815260200182805461135a90611e66565b80156113a75780601f1061137c576101008083540402835291602001916113a7565b820191906000526020600020905b81548152906001019060200180831161138a57829003601f168201915b50505050509050919050565b8280546113bf90611e66565b90600052602060002090601f0160209004810192826113e15760008555611428565b82601f106113fa57805160ff1916838001178555611428565b82800160010185558215611428579182015b8281111561142757825182559160200191906001019061140c565b5b50905061143591906114db565b5090565b50805461144590611e66565b6000825580601f106114575750611476565b601f01602090049060005260206000209081019061147591906114db565b5b50565b6040518060c0016040528060008152602001600073ffffffffffffffffffffffffffffffffffffffff168152602001606081526020016060815260200160008152602001600073ffffffffffffffffffffffffffffffffffffffff1681525090565b5b808211156114f45760008160009055506001016114dc565b5090565b6000604051905090565b600080fd5b600080fd5b6000819050919050565b61151f8161150c565b811461152a57600080fd5b50565b60008135905061153c81611516565b92915050565b60006020828403121561155857611557611502565b5b60006115668482850161152d565b91505092915050565b600073ffffffffffffffffffffffffffffffffffffffff82169050919050565b600061159a8261156f565b9050919050565b6115aa8161158f565b82525050565b60006020820190506115c560008301846115a1565b92915050565b6115d48161150c565b82525050565b60006020820190506115ef60008301846115cb565b92915050565b6115fe8161158f565b811461160957600080fd5b50565b60008135905061161b816115f5565b92915050565b600080fd5b600080fd5b6000601f19601f8301169050919050565b7f4e487b7100000000000000000000000000000000000000000000000000000000600052604160045260246000fd5b6116748261162b565b810181811067ffffffffffffffff821117156116935761169261163c565b5b80604052505050565b60006116a66114f8565b90506116b2828261166b565b919050565b600067ffffffffffffffff8211156116d2576116d161163c565b5b6116db8261162b565b9050602081019050919050565b82818337600083830152505050565b600061170a611705846116b7565b61169c565b90508281526020810184848401111561172657611725611626565b5b6117318482856116e8565b509392505050565b600082601f83011261174e5761174d611621565b5b813561175e8482602086016116f7565b91505092915050565b60008060008060008060c0878903121561178457611783611502565b5b600061179289828a0161152d565b96505060206117a389828a0161160c565b955050604087013567ffffffffffffffff8111156117c4576117c3611507565b5b6117d089828a01611739565b945050606087013567ffffffffffffffff8111156117f1576117f0611507565b5b6117fd89828a01611739565b935050608061180e89828a0161152d565b92505060a061181f89828a0161160c565b9150509295509295509295565b600081519050919050565b600082825260208201905092915050565b6000819050602082019050919050565b6118618161150c565b82525050565b6118708161158f565b82525050565b600081519050919050565b600082825260208201905092915050565b60005b838110156118b0578082015181840152602081019050611895565b838111156118bf576000848401525b50505050565b60006118d082611876565b6118da8185611881565b93506118ea818560208601611892565b6118f38161162b565b840191505092915050565b600060c0830160008301516119166000860182611858565b5060208301516119296020860182611867565b506040830151848203604086015261194182826118c5565b9150506060830151848203606086015261195b82826118c5565b91505060808301516119706080860182611858565b5060a083015161198360a0860182611867565b508091505092915050565b600061199a83836118fe565b905092915050565b6000602082019050919050565b60006119ba8261182c565b6119c48185611837565b9350836020820285016119d685611848565b8060005b85811015611a1257848403895281516119f3858261198e565b94506119fe836119a2565b925060208a019950506001810190506119da565b50829750879550505050505092915050565b60006020820190508181036000830152611a3e81846119af565b905092915050565b600080fd5b600080fd5b60008083601f840112611a6657611a65611621565b5b8235905067ffffffffffffffff811115611a8357611a82611a46565b5b602083019150836001820283011115611a9f57611a9e611a4b565b5b9250929050565b60008060208385031215611abd57611abc611502565b5b600083013567ffffffffffffffff811115611adb57611ada611507565b5b611ae785828601611a50565b92509250509250929050565b600060c083016000830151611b0b6000860182611858565b506020830151611b1e6020860182611867565b5060408301518482036040860152611b3682826118c5565b91505060608301518482036060860152611b5082826118c5565b9150506080830151611b656080860182611858565b5060a0830151611b7860a0860182611867565b508091505092915050565b60006020820190508181036000830152611b9d8184611af3565b905092915050565b600060208284031215611bbb57611bba611502565b5b6000611bc98482850161160c565b91505092915050565b600067ffffffffffffffff821115611bed57611bec61163c565b5b611bf68261162b565b9050602081019050919050565b6000611c16611c1184611bd2565b61169c565b905082815260208101848484011115611c3257611c31611626565b5b611c3d8482856116e8565b509392505050565b600082601f830112611c5a57611c59611621565b5b8135611c6a848260208601611c03565b91505092915050565b600060208284031215611c8957611c88611502565b5b600082013567ffffffffffffffff811115611ca757611ca6611507565b5b611cb384828501611c45565b91505092915050565b60008115159050919050565b611cd181611cbc565b82525050565b600081519050919050565b600082825260208201905092915050565b6000611cfe82611cd7565b611d088185611ce2565b9350611d18818560208601611892565b611d218161162b565b840191505092915050565b6000604082019050611d416000830185611cc8565b8181036020830152611d538184611cf3565b90509392505050565b60008060408385031215611d7357611d72611502565b5b6000611d818582860161160c565b9250506020611d928582860161152d565b9150509250929050565b600082825260208201905092915050565b6000611db882611876565b611dc28185611d9c565b9350611dd2818560208601611892565b611ddb8161162b565b840191505092915050565b60006020820190508181036000830152611e008184611dad565b905092915050565b7f4e487b7100000000000000000000000000000000000000000000000000000000600052603260045260246000fd5b7f4e487b7100000000000000000000000000000000000000000000000000000000600052602260045260246000fd5b60006002820490506001821680611e7e57607f821691505b60208210811415611e9257611e91611e37565b5b50919050565b7f4e487b7100000000000000000000000000000000000000000000000000000000600052601160045260246000fd5b6000611ed28261150c565b9150611edd8361150c565b925082821015611ef057611eef611e98565b5b828203905092915050565b6000611f068261150c565b91507fffffffffffffffffffffffffffffffffffffffffffffffffffffffffffffffff821415611f3957611f38611e98565b5b600182019050919050565b6000611f4f8261150c565b9150611f5a8361150c565b9250827fffffffffffffffffffffffffffffffffffffffffffffffffffffffffffffffff03821115611f8f57611f8e611e98565b5b82820190509291505056fea26469706673582212209192f17b2f83b1a7da5b62371249597c01a5d79e0b983a706ac7fa308e3be6f564736f6c63430008080033",
  "devdoc": {
    "details": "It interracts with the Brand Smart Contract to add their details in brands array & check for their warranty period.",
    "kind": "dev",
    "methods": {},
    "title": "Admin Smart Contract",
    "version": 1
  },
  "userdoc": {
    "kind": "user",
    "methods": {
      "checkUpkeep(bytes)": {
        "notice": "Overriden by the KeepersInterface, the returned value must be true to run performUpKeep."
      },
      "performUpkeep(bytes)": {
        "notice": "After checkUpkeep returns true, it updates the warranty of all brands in the array."
      }
    },
    "notice": "This contract is only accessable by someone in authority and can be used to check & maintain brands that provide nft warranties.",
    "version": 1
  },
  "storageLayout": {
    "storage": [
      {
        "astId": 1939,
        "contract": "contracts/Admin.sol:Admin",
        "label": "s_brands",
        "offset": 0,
        "slot": "0",
        "type": "t_array(t_struct(Brand)1931_storage)dyn_storage"
      },
      {
        "astId": 1941,
        "contract": "contracts/Admin.sol:Admin",
        "label": "s_currentTimeStamp",
        "offset": 0,
        "slot": "1",
        "type": "t_uint256"
      },
      {
        "astId": 1946,
        "contract": "contracts/Admin.sol:Admin",
        "label": "s_warrantyPack",
        "offset": 0,
        "slot": "2",
        "type": "t_mapping(t_uint256,t_array(t_uint256)dyn_storage)"
      },
      {
        "astId": 1950,
        "contract": "contracts/Admin.sol:Admin",
        "label": "s_addressToBrandIndex",
        "offset": 0,
        "slot": "3",
        "type": "t_mapping(t_address,t_uint256)"
      },
      {
        "astId": 1954,
        "contract": "contracts/Admin.sol:Admin",
        "label": "s_addressToBrandId",
        "offset": 0,
        "slot": "4",
        "type": "t_mapping(t_address,t_uint256)"
      },
      {
        "astId": 1958,
        "contract": "contracts/Admin.sol:Admin",
        "label": "s_idToIndex",
        "offset": 0,
        "slot": "5",
        "type": "t_mapping(t_uint256,t_uint256)"
      }
    ],
    "types": {
      "t_address": {
        "encoding": "inplace",
        "label": "address",
        "numberOfBytes": "20"
      },
      "t_array(t_struct(Brand)1931_storage)dyn_storage": {
        "base": "t_struct(Brand)1931_storage",
        "encoding": "dynamic_array",
        "label": "struct Admin.Brand[]",
        "numberOfBytes": "32"
      },
      "t_array(t_uint256)dyn_storage": {
        "base": "t_uint256",
        "encoding": "dynamic_array",
        "label": "uint256[]",
        "numberOfBytes": "32"
      },
      "t_mapping(t_address,t_uint256)": {
        "encoding": "mapping",
        "key": "t_address",
        "label": "mapping(address => uint256)",
        "numberOfBytes": "32",
        "value": "t_uint256"
      },
      "t_mapping(t_uint256,t_array(t_uint256)dyn_storage)": {
        "encoding": "mapping",
        "key": "t_uint256",
        "label": "mapping(uint256 => uint256[])",
        "numberOfBytes": "32",
        "value": "t_array(t_uint256)dyn_storage"
      },
      "t_mapping(t_uint256,t_uint256)": {
        "encoding": "mapping",
        "key": "t_uint256",
        "label": "mapping(uint256 => uint256)",
        "numberOfBytes": "32",
        "value": "t_uint256"
      },
      "t_string_storage": {
        "encoding": "bytes",
        "label": "string",
        "numberOfBytes": "32"
      },
      "t_struct(Brand)1931_storage": {
        "encoding": "inplace",
        "label": "struct Admin.Brand",
        "members": [
          {
            "astId": 1920,
            "contract": "contracts/Admin.sol:Admin",
            "label": "brandID",
            "offset": 0,
            "slot": "0",
            "type": "t_uint256"
          },
          {
            "astId": 1922,
            "contract": "contracts/Admin.sol:Admin",
            "label": "brandAddress",
            "offset": 0,
            "slot": "1",
            "type": "t_address"
          },
          {
            "astId": 1924,
            "contract": "contracts/Admin.sol:Admin",
            "label": "brandName",
            "offset": 0,
            "slot": "2",
            "type": "t_string_storage"
          },
          {
            "astId": 1926,
            "contract": "contracts/Admin.sol:Admin",
            "label": "brandEmailAddress",
            "offset": 0,
            "slot": "3",
            "type": "t_string_storage"
          },
          {
            "astId": 1928,
            "contract": "contracts/Admin.sol:Admin",
            "label": "warrantyPeriod",
            "offset": 0,
            "slot": "4",
            "type": "t_uint256"
          },
          {
            "astId": 1930,
            "contract": "contracts/Admin.sol:Admin",
            "label": "smartContractAddress",
            "offset": 0,
            "slot": "5",
            "type": "t_address"
          }
        ],
        "numberOfBytes": "192"
      },
      "t_uint256": {
        "encoding": "inplace",
        "label": "uint256",
        "numberOfBytes": "32"
      }
    }
  }
}