{
  "address": "0x5FbDB2315678afecb367f032d93F642f64180aa3",
  "abi": [
    {
      "inputs": [
        {
          "internalType": "uint256",
          "name": "interval",
          "type": "uint256"
        }
      ],
      "stateMutability": "nonpayable",
      "type": "constructor"
    },
    {
      "inputs": [],
      "name": "Admin__NoBrandAvailable",
      "type": "error"
    },
    {
      "inputs": [],
      "name": "Admin__UpkeepNotTrue",
      "type": "error"
    },
    {
      "anonymous": false,
      "inputs": [
        {
          "indexed": true,
          "internalType": "address",
          "name": "brandAdd",
          "type": "address"
        }
      ],
      "name": "BrandAdded",
      "type": "event"
    },
    {
      "anonymous": false,
      "inputs": [
        {
          "indexed": true,
          "internalType": "address",
          "name": "brandAdd",
          "type": "address"
        }
      ],
      "name": "WarrantyExtended",
      "type": "event"
    },
    {
      "inputs": [
        {
          "internalType": "uint256",
          "name": "_brandID",
          "type": "uint256"
        },
        {
          "internalType": "address",
          "name": "_brandAdd",
          "type": "address"
        },
        {
          "internalType": "string",
          "name": "_brandName",
          "type": "string"
        },
        {
          "internalType": "string",
          "name": "_brandEmailAddress",
          "type": "string"
        },
        {
          "internalType": "uint256",
          "name": "_warrantyIndex",
          "type": "uint256"
        },
        {
          "internalType": "address",
          "name": "_smartContractAddress",
          "type": "address"
        }
      ],
      "name": "addBrand",
      "outputs": [],
      "stateMutability": "nonpayable",
      "type": "function"
    },
    {
      "inputs": [
        {
          "internalType": "bytes",
          "name": "",
          "type": "bytes"
        }
      ],
      "name": "checkUpkeep",
      "outputs": [
        {
          "internalType": "bool",
          "name": "upkeepNeeded",
          "type": "bool"
        },
        {
          "internalType": "bytes",
          "name": "",
          "type": "bytes"
        }
      ],
      "stateMutability": "view",
      "type": "function"
    },
    {
      "inputs": [
        {
          "internalType": "address",
          "name": "_brandAdd",
          "type": "address"
        },
        {
          "internalType": "uint256",
          "name": "_warrantyIndex",
          "type": "uint256"
        }
      ],
      "name": "extendWarranty",
      "outputs": [],
      "stateMutability": "payable",
      "type": "function"
    },
    {
      "inputs": [
        {
          "internalType": "uint256",
          "name": "index",
          "type": "uint256"
        }
      ],
      "name": "getBrandAddress",
      "outputs": [
        {
          "internalType": "address",
          "name": "",
          "type": "address"
        }
      ],
      "stateMutability": "view",
      "type": "function"
    },
    {
      "inputs": [],
      "name": "getBrandArrays",
      "outputs": [
        {
          "components": [
            {
              "internalType": "uint256",
              "name": "brandID",
              "type": "uint256"
            },
            {
              "internalType": "address",
              "name": "brandAddress",
              "type": "address"
            },
            {
              "internalType": "string",
              "name": "brandName",
              "type": "string"
            },
            {
              "internalType": "string",
              "name": "brandEmailAddress",
              "type": "string"
            },
            {
              "internalType": "uint256",
              "name": "warrantyPeriod",
              "type": "uint256"
            },
            {
              "internalType": "address",
              "name": "smartContractAddress",
              "type": "address"
            }
          ],
          "internalType": "struct Admin.Brand[]",
          "name": "",
          "type": "tuple[]"
        }
      ],
      "stateMutability": "view",
      "type": "function"
    },
    {
      "inputs": [
        {
          "internalType": "uint256",
          "name": "index",
          "type": "uint256"
        }
      ],
      "name": "getBrandData",
      "outputs": [
        {
          "components": [
            {
              "internalType": "uint256",
              "name": "brandID",
              "type": "uint256"
            },
            {
              "internalType": "address",
              "name": "brandAddress",
              "type": "address"
            },
            {
              "internalType": "string",
              "name": "brandName",
              "type": "string"
            },
            {
              "internalType": "string",
              "name": "brandEmailAddress",
              "type": "string"
            },
            {
              "internalType": "uint256",
              "name": "warrantyPeriod",
              "type": "uint256"
            },
            {
              "internalType": "address",
              "name": "smartContractAddress",
              "type": "address"
            }
          ],
          "internalType": "struct Admin.Brand",
          "name": "",
          "type": "tuple"
        }
      ],
      "stateMutability": "view",
      "type": "function"
    },
    {
      "inputs": [
        {
          "internalType": "uint256",
          "name": "index",
          "type": "uint256"
        }
      ],
      "name": "getBrandEmailAddress",
      "outputs": [
        {
          "internalType": "string",
          "name": "",
          "type": "string"
        }
      ],
      "stateMutability": "view",
      "type": "function"
    },
    {
      "inputs": [
        {
          "internalType": "address",
          "name": "brandAdd",
          "type": "address"
        }
      ],
      "name": "getBrandID",
      "outputs": [
        {
          "internalType": "uint256",
          "name": "",
          "type": "uint256"
        }
      ],
      "stateMutability": "view",
      "type": "function"
    },
    {
      "inputs": [
        {
          "internalType": "address",
          "name": "brandAdd",
          "type": "address"
        }
      ],
      "name": "getBrandIndex",
      "outputs": [
        {
          "internalType": "uint256",
          "name": "",
          "type": "uint256"
        }
      ],
      "stateMutability": "view",
      "type": "function"
    },
    {
      "inputs": [
        {
          "internalType": "uint256",
          "name": "index",
          "type": "uint256"
        }
      ],
      "name": "getBrandName",
      "outputs": [
        {
          "internalType": "string",
          "name": "",
          "type": "string"
        }
      ],
      "stateMutability": "view",
      "type": "function"
    },
    {
      "inputs": [
        {
          "internalType": "uint256",
          "name": "index",
          "type": "uint256"
        }
      ],
      "name": "getBrandSmartContractAddress",
      "outputs": [
        {
          "internalType": "address",
          "name": "",
          "type": "address"
        }
      ],
      "stateMutability": "view",
      "type": "function"
    },
    {
      "inputs": [
        {
          "internalType": "uint256",
          "name": "index",
          "type": "uint256"
        }
      ],
      "name": "getBrandWarrantyLeft",
      "outputs": [
        {
          "internalType": "uint256",
          "name": "",
          "type": "uint256"
        }
      ],
      "stateMutability": "view",
      "type": "function"
    },
    {
      "inputs": [
        {
          "internalType": "uint256",
          "name": "warrantyPackIndex",
          "type": "uint256"
        }
      ],
      "name": "getEntryFee",
      "outputs": [
        {
          "internalType": "uint256",
          "name": "",
          "type": "uint256"
        }
      ],
      "stateMutability": "view",
      "type": "function"
    },
    {
      "inputs": [],
      "name": "getInterval",
      "outputs": [
        {
          "internalType": "uint256",
          "name": "",
          "type": "uint256"
        }
      ],
      "stateMutability": "view",
      "type": "function"
    },
    {
      "inputs": [],
      "name": "getNumberOfBrands",
      "outputs": [
        {
          "internalType": "uint256",
          "name": "",
          "type": "uint256"
        }
      ],
      "stateMutability": "view",
      "type": "function"
    },
    {
      "inputs": [],
      "name": "getOwner",
      "outputs": [
        {
          "internalType": "address",
          "name": "",
          "type": "address"
        }
      ],
      "stateMutability": "view",
      "type": "function"
    },
    {
      "inputs": [
        {
          "internalType": "uint256",
          "name": "warrantyPackIndex",
          "type": "uint256"
        }
      ],
      "name": "getWarrantyPack",
      "outputs": [
        {
          "internalType": "uint256",
          "name": "",
          "type": "uint256"
        }
      ],
      "stateMutability": "view",
      "type": "function"
    },
    {
      "inputs": [
        {
          "internalType": "bytes",
          "name": "",
          "type": "bytes"
        }
      ],
      "name": "performUpkeep",
      "outputs": [],
      "stateMutability": "nonpayable",
      "type": "function"
    }
  ],
  "transactionHash": "0xc6a2ae1f850eaa4180d0831afb4fd02f8fd4dce7f362d73ee651c63f6694df83",
  "args": [
    "86400"
  ],
  "numDeployments": 1,
  "solcInputHash": "7fd855dce0dd75c493b91f29fed0f845",
  "bytecode": "0x60c06040523480156200001157600080fd5b506040516200217638038062002176833981810160405281019062000037919062000200565b3373ffffffffffffffffffffffffffffffffffffffff1660808173ffffffffffffffffffffffffffffffffffffffff1660601b815250508060a08181525050426001819055506040518060400160405280601e60ff168152602001600160ff168152506002600060018152602001908152602001600020906002620000be9291906200014a565b506040518060400160405280603c60ff168152602001600260ff168152506002600060028152602001908152602001600020906002620001009291906200014a565b506040518060400160405280605a60ff168152602001600360ff168152506002600060038152602001908152602001600020906002620001429291906200014a565b505062000232565b8280548282559060005260206000209081019282156200018e579160200282015b828111156200018d578251829060ff169055916020019190600101906200016b565b5b5090506200019d9190620001a1565b5090565b5b80821115620001bc576000816000905550600101620001a2565b5090565b600080fd5b6000819050919050565b620001da81620001c5565b8114620001e657600080fd5b50565b600081519050620001fa81620001cf565b92915050565b600060208284031215620002195762000218620001c0565b5b60006200022984828501620001e9565b91505092915050565b60805160601c60a051611f146200026260003960008181610f1401526110a8015260006110800152611f146000f3fe6080604052600436106101095760003560e01c8063826debf1116100955780639ab5a65d116100645780639ab5a65d146103a9578063ab681893146103e6578063b0074bd614610411578063d5b2a79e1461044e578063dbd8db6b1461048b57610109565b8063826debf1146102fa578063893d20e81461031657806391ad27b414610341578063984d3c961461036c57610109565b80634585e33b116100dc5780634585e33b146101dc5780634907c36a1461020557806351ecf229146102425780636123504a1461027f5780636e04ff0d146102bc57610109565b806303cb964d1461010e57806310dc51681461014b57806311b63a22146101745780632940abf0146101b1575b600080fd5b34801561011a57600080fd5b5061013560048036038101906101309190611486565b6104c8565b60405161014291906114f4565b60405180910390f35b34801561015757600080fd5b50610172600480360381019061016d9190611681565b610516565b005b34801561018057600080fd5b5061019b60048036038101906101969190611486565b610780565b6040516101a89190611755565b60405180910390f35b3480156101bd57600080fd5b506101c66107ba565b6040516101d39190611968565b60405180910390f35b3480156101e857600080fd5b5061020360048036038101906101fe91906119ea565b6109fd565b005b34801561021157600080fd5b5061022c60048036038101906102279190611486565b610c57565b60405161023991906114f4565b60405180910390f35b34801561024e57600080fd5b5061026960048036038101906102649190611486565b610ca5565b6040516102769190611ac7565b60405180910390f35b34801561028b57600080fd5b506102a660048036038101906102a19190611ae9565b610ec5565b6040516102b39190611755565b60405180910390f35b3480156102c857600080fd5b506102e360048036038101906102de9190611bb7565b610f0e565b6040516102f1929190611c70565b60405180910390f35b610314600480360381019061030f9190611ca0565b610f84565b005b34801561032257600080fd5b5061032b61107c565b60405161033891906114f4565b60405180910390f35b34801561034d57600080fd5b506103566110a4565b6040516103639190611755565b60405180910390f35b34801561037857600080fd5b50610393600480360381019061038e9190611486565b6110cc565b6040516103a09190611755565b60405180910390f35b3480156103b557600080fd5b506103d060048036038101906103cb9190611486565b611106565b6040516103dd9190611d2a565b60405180910390f35b3480156103f257600080fd5b506103fb6111bd565b6040516104089190611755565b60405180910390f35b34801561041d57600080fd5b5061043860048036038101906104339190611ae9565b6111c9565b6040516104459190611755565b60405180910390f35b34801561045a57600080fd5b5061047560048036038101906104709190611486565b611212565b6040516104829190611755565b60405180910390f35b34801561049757600080fd5b506104b260048036038101906104ad9190611486565b611240565b6040516104bf9190611d2a565b60405180910390f35b60008082815481106104dd576104dc611d4c565b5b906000526020600020906006020160050160009054906101000a900473ffffffffffffffffffffffffffffffffffffffff169050919050565b600080549050600360008773ffffffffffffffffffffffffffffffffffffffff1673ffffffffffffffffffffffffffffffffffffffff1681526020019081526020016000208190555085600460008773ffffffffffffffffffffffffffffffffffffffff1673ffffffffffffffffffffffffffffffffffffffff1681526020019081526020016000208190555060006040518060c001604052808881526020018773ffffffffffffffffffffffffffffffffffffffff1681526020018681526020018581526020016002600086815260200190815260200160002060008154811061060457610603611d4c565b5b906000526020600020015481526020018373ffffffffffffffffffffffffffffffffffffffff1681525090806001815401808255809150506001900390600052602060002090600602016000909190919091506000820151816000015560208201518160010160006101000a81548173ffffffffffffffffffffffffffffffffffffffff021916908373ffffffffffffffffffffffffffffffffffffffff16021790555060408201518160020190805190602001906106c49291906112f7565b5060608201518160030190805190602001906106e19291906112f7565b506080820151816004015560a08201518160050160006101000a81548173ffffffffffffffffffffffffffffffffffffffff021916908373ffffffffffffffffffffffffffffffffffffffff16021790555050508473ffffffffffffffffffffffffffffffffffffffff167ff294465ab6aaa3650993093431777d23cda2be98f0ce448bbd202694c8beafb960405160405180910390a2505050505050565b6000600260008381526020019081526020016000206000815481106107a8576107a7611d4c565b5b90600052602060002001549050919050565b60606000805480602002602001604051908101604052809291908181526020016000905b828210156109f457838290600052602060002090600602016040518060c0016040529081600082015481526020016001820160009054906101000a900473ffffffffffffffffffffffffffffffffffffffff1673ffffffffffffffffffffffffffffffffffffffff1673ffffffffffffffffffffffffffffffffffffffff16815260200160028201805461087190611daa565b80601f016020809104026020016040519081016040528092919081815260200182805461089d90611daa565b80156108ea5780601f106108bf576101008083540402835291602001916108ea565b820191906000526020600020905b8154815290600101906020018083116108cd57829003601f168201915b5050505050815260200160038201805461090390611daa565b80601f016020809104026020016040519081016040528092919081815260200182805461092f90611daa565b801561097c5780601f106109515761010080835404028352916020019161097c565b820191906000526020600020905b81548152906001019060200180831161095f57829003601f168201915b50505050508152602001600482015481526020016005820160009054906101000a900473ffffffffffffffffffffffffffffffffffffffff1673ffffffffffffffffffffffffffffffffffffffff1673ffffffffffffffffffffffffffffffffffffffff1681525050815260200190600101906107de565b50505050905090565b6000610a1760405180602001604052806000815250610f0e565b50905080610a51576040517f4869d11200000000000000000000000000000000000000000000000000000000815260040160405180910390fd5b600080805490501415610a90576040517f048e7b7500000000000000000000000000000000000000000000000000000000815260040160405180910390fd5b60005b600080549050811015610c4a57600160008281548110610ab657610ab5611d4c565b5b90600052602060002090600602016004016000828254610ad69190611e0b565b925050819055506000808281548110610af257610af1611d4c565b5b9060005260206000209060060201600401541415610c3757600060036000808481548110610b2357610b22611d4c565b5b906000526020600020906006020160010160009054906101000a900473ffffffffffffffffffffffffffffffffffffffff1673ffffffffffffffffffffffffffffffffffffffff1673ffffffffffffffffffffffffffffffffffffffff1681526020019081526020016000208190555060008181548110610ba757610ba6611d4c565b5b90600052602060002090600602016000808201600090556001820160006101000a81549073ffffffffffffffffffffffffffffffffffffffff0219169055600282016000610bf5919061137d565b600382016000610c05919061137d565b60048201600090556005820160006101000a81549073ffffffffffffffffffffffffffffffffffffffff021916905550505b8080610c4290611e3f565b915050610a93565b5042600181905550505050565b6000808281548110610c6c57610c6b611d4c565b5b906000526020600020906006020160010160009054906101000a900473ffffffffffffffffffffffffffffffffffffffff169050919050565b610cad6113bd565b60008281548110610cc157610cc0611d4c565b5b90600052602060002090600602016040518060c0016040529081600082015481526020016001820160009054906101000a900473ffffffffffffffffffffffffffffffffffffffff1673ffffffffffffffffffffffffffffffffffffffff1673ffffffffffffffffffffffffffffffffffffffff168152602001600282018054610d4a90611daa565b80601f0160208091040260200160405190810160405280929190818152602001828054610d7690611daa565b8015610dc35780601f10610d9857610100808354040283529160200191610dc3565b820191906000526020600020905b815481529060010190602001808311610da657829003601f168201915b50505050508152602001600382018054610ddc90611daa565b80601f0160208091040260200160405190810160405280929190818152602001828054610e0890611daa565b8015610e555780601f10610e2a57610100808354040283529160200191610e55565b820191906000526020600020905b815481529060010190602001808311610e3857829003601f168201915b50505050508152602001600482015481526020016005820160009054906101000a900473ffffffffffffffffffffffffffffffffffffffff1673ffffffffffffffffffffffffffffffffffffffff1673ffffffffffffffffffffffffffffffffffffffff16815250509050919050565b6000600360008373ffffffffffffffffffffffffffffffffffffffff1673ffffffffffffffffffffffffffffffffffffffff168152602001908152602001600020549050919050565b600060607f000000000000000000000000000000000000000000000000000000000000000060015442610f419190611e0b565b119150816040518060400160405280600381526020017f307830000000000000000000000000000000000000000000000000000000000081525091509150915091565b6000600360008473ffffffffffffffffffffffffffffffffffffffff1673ffffffffffffffffffffffffffffffffffffffff16815260200190815260200160002054905060026000838152602001908152602001600020600081548110610fee57610fed611d4c565b5b90600052602060002001546000828154811061100d5761100c611d4c565b5b9060005260206000209060060201600401600082825461102d9190611e88565b925050819055508273ffffffffffffffffffffffffffffffffffffffff167f0ea7d2342843933fa1a5957a73c94e85bd2272ae8cbe39e30ac528fe08d4135e60405160405180910390a2505050565b60007f0000000000000000000000000000000000000000000000000000000000000000905090565b60007f0000000000000000000000000000000000000000000000000000000000000000905090565b6000600260008381526020019081526020016000206001815481106110f4576110f3611d4c565b5b90600052602060002001549050919050565b60606000828154811061111c5761111b611d4c565b5b9060005260206000209060060201600301805461113890611daa565b80601f016020809104026020016040519081016040528092919081815260200182805461116490611daa565b80156111b15780601f10611186576101008083540402835291602001916111b1565b820191906000526020600020905b81548152906001019060200180831161119457829003601f168201915b50505050509050919050565b60008080549050905090565b6000600460008373ffffffffffffffffffffffffffffffffffffffff1673ffffffffffffffffffffffffffffffffffffffff168152602001908152602001600020549050919050565b600080828154811061122757611226611d4c565b5b9060005260206000209060060201600401549050919050565b60606000828154811061125657611255611d4c565b5b9060005260206000209060060201600201805461127290611daa565b80601f016020809104026020016040519081016040528092919081815260200182805461129e90611daa565b80156112eb5780601f106112c0576101008083540402835291602001916112eb565b820191906000526020600020905b8154815290600101906020018083116112ce57829003601f168201915b50505050509050919050565b82805461130390611daa565b90600052602060002090601f016020900481019282611325576000855561136c565b82601f1061133e57805160ff191683800117855561136c565b8280016001018555821561136c579182015b8281111561136b578251825591602001919060010190611350565b5b509050611379919061141f565b5090565b50805461138990611daa565b6000825580601f1061139b57506113ba565b601f0160209004906000526020600020908101906113b9919061141f565b5b50565b6040518060c0016040528060008152602001600073ffffffffffffffffffffffffffffffffffffffff168152602001606081526020016060815260200160008152602001600073ffffffffffffffffffffffffffffffffffffffff1681525090565b5b80821115611438576000816000905550600101611420565b5090565b6000604051905090565b600080fd5b600080fd5b6000819050919050565b61146381611450565b811461146e57600080fd5b50565b6000813590506114808161145a565b92915050565b60006020828403121561149c5761149b611446565b5b60006114aa84828501611471565b91505092915050565b600073ffffffffffffffffffffffffffffffffffffffff82169050919050565b60006114de826114b3565b9050919050565b6114ee816114d3565b82525050565b600060208201905061150960008301846114e5565b92915050565b611518816114d3565b811461152357600080fd5b50565b6000813590506115358161150f565b92915050565b600080fd5b600080fd5b6000601f19601f8301169050919050565b7f4e487b7100000000000000000000000000000000000000000000000000000000600052604160045260246000fd5b61158e82611545565b810181811067ffffffffffffffff821117156115ad576115ac611556565b5b80604052505050565b60006115c061143c565b90506115cc8282611585565b919050565b600067ffffffffffffffff8211156115ec576115eb611556565b5b6115f582611545565b9050602081019050919050565b82818337600083830152505050565b600061162461161f846115d1565b6115b6565b9050828152602081018484840111156116405761163f611540565b5b61164b848285611602565b509392505050565b600082601f8301126116685761166761153b565b5b8135611678848260208601611611565b91505092915050565b60008060008060008060c0878903121561169e5761169d611446565b5b60006116ac89828a01611471565b96505060206116bd89828a01611526565b955050604087013567ffffffffffffffff8111156116de576116dd61144b565b5b6116ea89828a01611653565b945050606087013567ffffffffffffffff81111561170b5761170a61144b565b5b61171789828a01611653565b935050608061172889828a01611471565b92505060a061173989828a01611526565b9150509295509295509295565b61174f81611450565b82525050565b600060208201905061176a6000830184611746565b92915050565b600081519050919050565b600082825260208201905092915050565b6000819050602082019050919050565b6117a581611450565b82525050565b6117b4816114d3565b82525050565b600081519050919050565b600082825260208201905092915050565b60005b838110156117f45780820151818401526020810190506117d9565b83811115611803576000848401525b50505050565b6000611814826117ba565b61181e81856117c5565b935061182e8185602086016117d6565b61183781611545565b840191505092915050565b600060c08301600083015161185a600086018261179c565b50602083015161186d60208601826117ab565b50604083015184820360408601526118858282611809565b9150506060830151848203606086015261189f8282611809565b91505060808301516118b4608086018261179c565b5060a08301516118c760a08601826117ab565b508091505092915050565b60006118de8383611842565b905092915050565b6000602082019050919050565b60006118fe82611770565b611908818561177b565b93508360208202850161191a8561178c565b8060005b85811015611956578484038952815161193785826118d2565b9450611942836118e6565b925060208a0199505060018101905061191e565b50829750879550505050505092915050565b6000602082019050818103600083015261198281846118f3565b905092915050565b600080fd5b600080fd5b60008083601f8401126119aa576119a961153b565b5b8235905067ffffffffffffffff8111156119c7576119c661198a565b5b6020830191508360018202830111156119e3576119e261198f565b5b9250929050565b60008060208385031215611a0157611a00611446565b5b600083013567ffffffffffffffff811115611a1f57611a1e61144b565b5b611a2b85828601611994565b92509250509250929050565b600060c083016000830151611a4f600086018261179c565b506020830151611a6260208601826117ab565b5060408301518482036040860152611a7a8282611809565b91505060608301518482036060860152611a948282611809565b9150506080830151611aa9608086018261179c565b5060a0830151611abc60a08601826117ab565b508091505092915050565b60006020820190508181036000830152611ae18184611a37565b905092915050565b600060208284031215611aff57611afe611446565b5b6000611b0d84828501611526565b91505092915050565b600067ffffffffffffffff821115611b3157611b30611556565b5b611b3a82611545565b9050602081019050919050565b6000611b5a611b5584611b16565b6115b6565b905082815260208101848484011115611b7657611b75611540565b5b611b81848285611602565b509392505050565b600082601f830112611b9e57611b9d61153b565b5b8135611bae848260208601611b47565b91505092915050565b600060208284031215611bcd57611bcc611446565b5b600082013567ffffffffffffffff811115611beb57611bea61144b565b5b611bf784828501611b89565b91505092915050565b60008115159050919050565b611c1581611c00565b82525050565b600081519050919050565b600082825260208201905092915050565b6000611c4282611c1b565b611c4c8185611c26565b9350611c5c8185602086016117d6565b611c6581611545565b840191505092915050565b6000604082019050611c856000830185611c0c565b8181036020830152611c978184611c37565b90509392505050565b60008060408385031215611cb757611cb6611446565b5b6000611cc585828601611526565b9250506020611cd685828601611471565b9150509250929050565b600082825260208201905092915050565b6000611cfc826117ba565b611d068185611ce0565b9350611d168185602086016117d6565b611d1f81611545565b840191505092915050565b60006020820190508181036000830152611d448184611cf1565b905092915050565b7f4e487b7100000000000000000000000000000000000000000000000000000000600052603260045260246000fd5b7f4e487b7100000000000000000000000000000000000000000000000000000000600052602260045260246000fd5b60006002820490506001821680611dc257607f821691505b60208210811415611dd657611dd5611d7b565b5b50919050565b7f4e487b7100000000000000000000000000000000000000000000000000000000600052601160045260246000fd5b6000611e1682611450565b9150611e2183611450565b925082821015611e3457611e33611ddc565b5b828203905092915050565b6000611e4a82611450565b91507fffffffffffffffffffffffffffffffffffffffffffffffffffffffffffffffff821415611e7d57611e7c611ddc565b5b600182019050919050565b6000611e9382611450565b9150611e9e83611450565b9250827fffffffffffffffffffffffffffffffffffffffffffffffffffffffffffffffff03821115611ed357611ed2611ddc565b5b82820190509291505056fea264697066735822122094e816a3f471d88a1dd37ee08541d3e898a7d002ffc01dec47a3673b7a640e1164736f6c63430008080033",
  "devdoc": {
    "details": "It interracts with the Brand Smart Contract to add their details in brands array & check for their warranty period.",
    "kind": "dev",
    "methods": {},
    "title": "Admin Smart Contract",
    "version": 1
  },
  "userdoc": {
    "kind": "user",
    "methods": {
      "checkUpkeep(bytes)": {
        "notice": "Overriden by the KeepersInterface, the returned value must be true to run performUpKeep."
      },
      "performUpkeep(bytes)": {
        "notice": "After checkUpkeep returns true, it updates the warranty of all brands in the array."
      }
    },
    "notice": "This contract is only accessable by someone in authority and can be used to check & maintain brands that provide nft warranties.",
    "version": 1
  },
  "storageLayout": {
    "storage": [
      {
        "astId": 1939,
        "contract": "contracts/Admin.sol:Admin",
        "label": "s_brands",
        "offset": 0,
        "slot": "0",
        "type": "t_array(t_struct(Brand)1931_storage)dyn_storage"
      },
      {
        "astId": 1941,
        "contract": "contracts/Admin.sol:Admin",
        "label": "s_currentTimeStamp",
        "offset": 0,
        "slot": "1",
        "type": "t_uint256"
      },
      {
        "astId": 1946,
        "contract": "contracts/Admin.sol:Admin",
        "label": "s_warrantyPack",
        "offset": 0,
        "slot": "2",
        "type": "t_mapping(t_uint256,t_array(t_uint256)dyn_storage)"
      },
      {
        "astId": 1950,
        "contract": "contracts/Admin.sol:Admin",
        "label": "s_addressToBrandIndex",
        "offset": 0,
        "slot": "3",
        "type": "t_mapping(t_address,t_uint256)"
      },
      {
        "astId": 1954,
        "contract": "contracts/Admin.sol:Admin",
        "label": "s_addressToBrandId",
        "offset": 0,
        "slot": "4",
        "type": "t_mapping(t_address,t_uint256)"
      }
    ],
    "types": {
      "t_address": {
        "encoding": "inplace",
        "label": "address",
        "numberOfBytes": "20"
      },
      "t_array(t_struct(Brand)1931_storage)dyn_storage": {
        "base": "t_struct(Brand)1931_storage",
        "encoding": "dynamic_array",
        "label": "struct Admin.Brand[]",
        "numberOfBytes": "32"
      },
      "t_array(t_uint256)dyn_storage": {
        "base": "t_uint256",
        "encoding": "dynamic_array",
        "label": "uint256[]",
        "numberOfBytes": "32"
      },
      "t_mapping(t_address,t_uint256)": {
        "encoding": "mapping",
        "key": "t_address",
        "label": "mapping(address => uint256)",
        "numberOfBytes": "32",
        "value": "t_uint256"
      },
      "t_mapping(t_uint256,t_array(t_uint256)dyn_storage)": {
        "encoding": "mapping",
        "key": "t_uint256",
        "label": "mapping(uint256 => uint256[])",
        "numberOfBytes": "32",
        "value": "t_array(t_uint256)dyn_storage"
      },
      "t_string_storage": {
        "encoding": "bytes",
        "label": "string",
        "numberOfBytes": "32"
      },
      "t_struct(Brand)1931_storage": {
        "encoding": "inplace",
        "label": "struct Admin.Brand",
        "members": [
          {
            "astId": 1920,
            "contract": "contracts/Admin.sol:Admin",
            "label": "brandID",
            "offset": 0,
            "slot": "0",
            "type": "t_uint256"
          },
          {
            "astId": 1922,
            "contract": "contracts/Admin.sol:Admin",
            "label": "brandAddress",
            "offset": 0,
            "slot": "1",
            "type": "t_address"
          },
          {
            "astId": 1924,
            "contract": "contracts/Admin.sol:Admin",
            "label": "brandName",
            "offset": 0,
            "slot": "2",
            "type": "t_string_storage"
          },
          {
            "astId": 1926,
            "contract": "contracts/Admin.sol:Admin",
            "label": "brandEmailAddress",
            "offset": 0,
            "slot": "3",
            "type": "t_string_storage"
          },
          {
            "astId": 1928,
            "contract": "contracts/Admin.sol:Admin",
            "label": "warrantyPeriod",
            "offset": 0,
            "slot": "4",
            "type": "t_uint256"
          },
          {
            "astId": 1930,
            "contract": "contracts/Admin.sol:Admin",
            "label": "smartContractAddress",
            "offset": 0,
            "slot": "5",
            "type": "t_address"
          }
        ],
        "numberOfBytes": "192"
      },
      "t_uint256": {
        "encoding": "inplace",
        "label": "uint256",
        "numberOfBytes": "32"
      }
    }
  }
}